{
  "_format": "hh-sol-artifact-1",
  "contractName": "UBI",
  "sourceName": "contracts/UBI.sol",
  "abi": [
    {
      "inputs": [
        {
          "internalType": "address",
          "name": "_backend",
          "type": "address"
        },
        {
          "internalType": "uint256",
          "name": "_dailyIncome",
          "type": "uint256"
        }
      ],
      "stateMutability": "nonpayable",
      "type": "constructor"
    },
    {
      "anonymous": false,
      "inputs": [
        {
          "indexed": false,
          "internalType": "address",
          "name": "subscriber",
          "type": "address"
        }
      ],
      "name": "Subscribed",
      "type": "event"
    },
    {
      "anonymous": false,
      "inputs": [
        {
          "indexed": false,
          "internalType": "address",
          "name": "subscriber",
          "type": "address"
        }
      ],
      "name": "Unsubscribed",
      "type": "event"
    },
    {
      "stateMutability": "nonpayable",
      "type": "fallback"
    },
    {
      "inputs": [
        {
          "internalType": "address",
          "name": "subscriber",
          "type": "address"
        }
      ],
      "name": "addCrossChainSubscription",
      "outputs": [],
      "stateMutability": "nonpayable",
      "type": "function"
    },
    {
      "inputs": [
        {
          "internalType": "address",
          "name": "subscriber",
          "type": "address"
        }
      ],
      "name": "cancelCrossChainSubscription",
      "outputs": [],
      "stateMutability": "nonpayable",
      "type": "function"
    },
    {
      "inputs": [],
      "name": "distribute",
      "outputs": [],
      "stateMutability": "nonpayable",
      "type": "function"
    },
    {
      "inputs": [],
      "name": "donate",
      "outputs": [],
      "stateMutability": "payable",
      "type": "function"
    },
    {
      "inputs": [],
      "name": "getBackend",
      "outputs": [
        {
          "internalType": "address",
          "name": "",
          "type": "address"
        }
      ],
      "stateMutability": "view",
      "type": "function"
    },
    {
      "inputs": [],
      "name": "getDailyIncome",
      "outputs": [
        {
          "internalType": "uint256",
          "name": "",
          "type": "uint256"
        }
      ],
      "stateMutability": "view",
      "type": "function"
    },
    {
      "inputs": [
        {
          "internalType": "address",
          "name": "_backend",
          "type": "address"
        }
      ],
      "name": "setBackend",
      "outputs": [],
      "stateMutability": "nonpayable",
      "type": "function"
    },
    {
      "inputs": [
        {
          "internalType": "uint256",
          "name": "_dailyIncome",
          "type": "uint256"
        }
      ],
      "name": "setDailyIncome",
      "outputs": [],
      "stateMutability": "nonpayable",
      "type": "function"
    },
    {
      "inputs": [],
      "name": "subscribe",
      "outputs": [],
      "stateMutability": "nonpayable",
      "type": "function"
    },
    {
      "inputs": [],
      "name": "unsubscribe",
      "outputs": [],
      "stateMutability": "nonpayable",
      "type": "function"
    }
  ],
  "bytecode": "0x608060405266038d7ea4c680006004553480156200001c57600080fd5b50604051620015a8380380620015a8833981810160405281019062000042919062000100565b336000806101000a81548173ffffffffffffffffffffffffffffffffffffffff021916908373ffffffffffffffffffffffffffffffffffffffff16021790555081600160006101000a81548173ffffffffffffffffffffffffffffffffffffffff021916908373ffffffffffffffffffffffffffffffffffffffff160217905550806004819055505050620001b3565b600081519050620000e3816200017f565b92915050565b600081519050620000fa8162000199565b92915050565b600080604083850312156200011457600080fd5b60006200012485828601620000d2565b92505060206200013785828601620000e9565b9150509250929050565b60006200014e8262000155565b9050919050565b600073ffffffffffffffffffffffffffffffffffffffff82169050919050565b6000819050919050565b6200018a8162000141565b81146200019657600080fd5b50565b620001a48162000175565b8114620001b057600080fd5b50565b6113e580620001c36000396000f3fe6080604052600436106100955760003560e01c8063da2d265b11610059578063da2d265b146101a3578063da7fc24f146101ce578063e4fc6b6d146101f7578063ed88c68e1461020e578063fcae44841461021857610096565b80630bc4bdf5146100e657806353685dc21461010f578063594eda641461013857806383f4eb63146101635780638f449a051461018c57610096565b5b3480156100a257600080fd5b5060006100e4576040517f08c379a00000000000000000000000000000000000000000000000000000000081526004016100db90610f85565b60405180910390fd5b005b3480156100f257600080fd5b5061010d60048036038101906101089190610d4a565b61022f565b005b34801561011b57600080fd5b5061013660048036038101906101319190610d4a565b6102cb565b005b34801561014457600080fd5b5061014d610367565b60405161015a9190610f0a565b60405180910390f35b34801561016f57600080fd5b5061018a60048036038101906101859190610d73565b610420565b005b34801561019857600080fd5b506101a16104b8565b005b3480156101af57600080fd5b506101b861058b565b6040516101c59190611025565b60405180910390f35b3480156101da57600080fd5b506101f560048036038101906101f09190610d4a565b610595565b005b34801561020357600080fd5b5061020c610667565b005b610216610884565b005b34801561022457600080fd5b5061022d610886565b005b600160009054906101000a900473ffffffffffffffffffffffffffffffffffffffff1673ffffffffffffffffffffffffffffffffffffffff163373ffffffffffffffffffffffffffffffffffffffff16146102bf576040517f08c379a00000000000000000000000000000000000000000000000000000000081526004016102b690610fa5565b60405180910390fd5b6102c8816108c8565b50565b600160009054906101000a900473ffffffffffffffffffffffffffffffffffffffff1673ffffffffffffffffffffffffffffffffffffffff163373ffffffffffffffffffffffffffffffffffffffff161461035b576040517f08c379a000000000000000000000000000000000000000000000000000000000815260040161035290610fa5565b60405180910390fd5b61036481610bd5565b50565b60008060009054906101000a900473ffffffffffffffffffffffffffffffffffffffff1673ffffffffffffffffffffffffffffffffffffffff163373ffffffffffffffffffffffffffffffffffffffff16146103f8576040517f08c379a00000000000000000000000000000000000000000000000000000000081526004016103ef90610f65565b60405180910390fd5b600160009054906101000a900473ffffffffffffffffffffffffffffffffffffffff16905090565b60008054906101000a900473ffffffffffffffffffffffffffffffffffffffff1673ffffffffffffffffffffffffffffffffffffffff163373ffffffffffffffffffffffffffffffffffffffff16146104ae576040517f08c379a00000000000000000000000000000000000000000000000000000000081526004016104a590610f65565b60405180910390fd5b8060048190555050565b600160009054906101000a900473ffffffffffffffffffffffffffffffffffffffff1673ffffffffffffffffffffffffffffffffffffffff163373ffffffffffffffffffffffffffffffffffffffff161415610549576040517f08c379a000000000000000000000000000000000000000000000000000000000815260040161054090610fc5565b60405180910390fd5b61055233610bd5565b7fa88fac53823b534c72d6958345adbe6801e072750d83b490d52ebbac51473a63336040516105819190610f0a565b60405180910390a1565b6000600454905090565b60008054906101000a900473ffffffffffffffffffffffffffffffffffffffff1673ffffffffffffffffffffffffffffffffffffffff163373ffffffffffffffffffffffffffffffffffffffff1614610623576040517f08c379a000000000000000000000000000000000000000000000000000000000815260040161061a90610f65565b60405180910390fd5b80600160006101000a81548173ffffffffffffffffffffffffffffffffffffffff021916908373ffffffffffffffffffffffffffffffffffffffff16021790555050565b600160009054906101000a900473ffffffffffffffffffffffffffffffffffffffff1673ffffffffffffffffffffffffffffffffffffffff163373ffffffffffffffffffffffffffffffffffffffff16146106f7576040517f08c379a00000000000000000000000000000000000000000000000000000000081526004016106ee90610fa5565b60405180910390fd5b60038054905060045461070a919061105c565b471161074b576040517f08c379a000000000000000000000000000000000000000000000000000000000815260040161074290610f25565b60405180910390fd5b60005b60038054905081101561088157600060038281548110610797577f4e487b7100000000000000000000000000000000000000000000000000000000600052603260045260246000fd5b9060005260206000200160009054906101000a900473ffffffffffffffffffffffffffffffffffffffff1673ffffffffffffffffffffffffffffffffffffffff166004546040516107e790610ef5565b60006040518083038185875af1925050503d8060008114610824576040519150601f19603f3d011682016040523d82523d6000602084013e610829565b606091505b505090508061086d576040517f08c379a000000000000000000000000000000000000000000000000000000000815260040161086490610f45565b60405180910390fd5b50808061087990611126565b91505061074e565b50565b565b61088f336108c8565b7fae563681ccc696fae58fe830f401bc9c043a43ddb9f7c2830b32c3c70d9966e7336040516108be9190610f0a565b60405180910390a1565b600260008273ffffffffffffffffffffffffffffffffffffffff1673ffffffffffffffffffffffffffffffffffffffff16815260200190815260200160002060009054906101000a900460ff16610954576040517f08c379a000000000000000000000000000000000000000000000000000000000815260040161094b90611005565b60405180910390fd5b60005b600380549050811015610b0c578173ffffffffffffffffffffffffffffffffffffffff16600382815481106109b5577f4e487b7100000000000000000000000000000000000000000000000000000000600052603260045260246000fd5b9060005260206000200160009054906101000a900473ffffffffffffffffffffffffffffffffffffffff1673ffffffffffffffffffffffffffffffffffffffff161415610af95760036001600380549050610a1091906110b6565b81548110610a47577f4e487b7100000000000000000000000000000000000000000000000000000000600052603260045260246000fd5b9060005260206000200160009054906101000a900473ffffffffffffffffffffffffffffffffffffffff1660038281548110610aac577f4e487b7100000000000000000000000000000000000000000000000000000000600052603260045260246000fd5b9060005260206000200160006101000a81548173ffffffffffffffffffffffffffffffffffffffff021916908373ffffffffffffffffffffffffffffffffffffffff160217905550610b0c565b8080610b0490611126565b915050610957565b506003805480610b45577f4e487b7100000000000000000000000000000000000000000000000000000000600052603160045260246000fd5b6001900381819060005260206000200160006101000a81549073ffffffffffffffffffffffffffffffffffffffff021916905590556000600260008373ffffffffffffffffffffffffffffffffffffffff1673ffffffffffffffffffffffffffffffffffffffff16815260200190815260200160002060006101000a81548160ff02191690831515021790555050565b600260008273ffffffffffffffffffffffffffffffffffffffff1673ffffffffffffffffffffffffffffffffffffffff16815260200190815260200160002060009054906101000a900460ff1615610c62576040517f08c379a0000000000000000000000000000000000000000000000000000000008152600401610c5990610fe5565b60405180910390fd5b6001600260008373ffffffffffffffffffffffffffffffffffffffff1673ffffffffffffffffffffffffffffffffffffffff16815260200190815260200160002060006101000a81548160ff0219169083151502179055506003819080600181540180825580915050600190039060005260206000200160009091909190916101000a81548173ffffffffffffffffffffffffffffffffffffffff021916908373ffffffffffffffffffffffffffffffffffffffff16021790555050565b600081359050610d2f81611381565b92915050565b600081359050610d4481611398565b92915050565b600060208284031215610d5c57600080fd5b6000610d6a84828501610d20565b91505092915050565b600060208284031215610d8557600080fd5b6000610d9384828501610d35565b91505092915050565b610da5816110ea565b82525050565b6000610db860228361104b565b9150610dc38261119e565b604082019050919050565b6000610ddb60148361104b565b9150610de6826111ed565b602082019050919050565b6000610dfe60218361104b565b9150610e0982611216565b604082019050919050565b6000610e2160218361104b565b9150610e2c82611265565b604082019050919050565b6000610e4460238361104b565b9150610e4f826112b4565b604082019050919050565b6000610e67601c8361104b565b9150610e7282611303565b602082019050919050565b6000610e8a601e8361104b565b9150610e958261132c565b602082019050919050565b6000610ead60198361104b565b9150610eb882611355565b602082019050919050565b6000610ed0600083611040565b9150610edb8261137e565b600082019050919050565b610eef8161111c565b82525050565b6000610f0082610ec3565b9150819050919050565b6000602082019050610f1f6000830184610d9c565b92915050565b60006020820190508181036000830152610f3e81610dab565b9050919050565b60006020820190508181036000830152610f5e81610dce565b9050919050565b60006020820190508181036000830152610f7e81610df1565b9050919050565b60006020820190508181036000830152610f9e81610e14565b9050919050565b60006020820190508181036000830152610fbe81610e37565b9050919050565b60006020820190508181036000830152610fde81610e5a565b9050919050565b60006020820190508181036000830152610ffe81610e7d565b9050919050565b6000602082019050818103600083015261101e81610ea0565b9050919050565b600060208201905061103a6000830184610ee6565b92915050565b600081905092915050565b600082825260208201905092915050565b60006110678261111c565b91506110728361111c565b9250817fffffffffffffffffffffffffffffffffffffffffffffffffffffffffffffffff04831182151516156110ab576110aa61116f565b5b828202905092915050565b60006110c18261111c565b91506110cc8361111c565b9250828210156110df576110de61116f565b5b828203905092915050565b60006110f5826110fc565b9050919050565b600073ffffffffffffffffffffffffffffffffffffffff82169050919050565b6000819050919050565b60006111318261111c565b91507fffffffffffffffffffffffffffffffffffffffffffffffffffffffffffffffff8214156111645761116361116f565b5b600182019050919050565b7f4e487b7100000000000000000000000000000000000000000000000000000000600052601160045260246000fd5b7f4e6f7420656e6f7567682066756e647320666f7220646973747269627574696f60008201527f6e2e000000000000000000000000000000000000000000000000000000000000602082015250565b7f446973747269627574696f6e206661696c65642e000000000000000000000000600082015250565b7f4f7065726174696f6e20616c6c6f776564206f6e6c7920666f72206f776e657260008201527f2e00000000000000000000000000000000000000000000000000000000000000602082015250565b7f506c6561736520757365207468652027646f6e617465272066756e6374696f6e60008201527f2e00000000000000000000000000000000000000000000000000000000000000602082015250565b7f4f7065726174696f6e20616c6c6f776564206f6e6c7920666f72206261636b6560008201527f6e642e0000000000000000000000000000000000000000000000000000000000602082015250565b7f546865206261636b656e642063616e2774207375627363726962652e00000000600082015250565b7f4164647265737320697320616c726561647920737562736372696265642e0000600082015250565b7f416464726573732069736e277420737562736372696265642e00000000000000600082015250565b50565b61138a816110ea565b811461139557600080fd5b50565b6113a18161111c565b81146113ac57600080fd5b5056fea26469706673582212200ec00e5a4a90b89a78a12b109feeddb32b09f041bd14234960667f6f7221027f64736f6c63430008040033",
  "linkReferences": {},
  "deployedLinkReferences": {}
}